{
  "_format": "hh-sol-artifact-1",
  "contractName": "SolmintNFT",
  "sourceName": "contracts/SolmintNFT.sol",
  "abi": [
    {
      "inputs": [],
      "stateMutability": "payable",
      "type": "constructor"
    },
    {
      "anonymous": false,
      "inputs": [
        {
          "indexed": true,
          "internalType": "address",
          "name": "owner",
          "type": "address"
        },
        {
          "indexed": true,
          "internalType": "address",
          "name": "approved",
          "type": "address"
        },
        {
          "indexed": true,
          "internalType": "uint256",
          "name": "tokenId",
          "type": "uint256"
        }
      ],
      "name": "Approval",
      "type": "event"
    },
    {
      "anonymous": false,
      "inputs": [
        {
          "indexed": true,
          "internalType": "address",
          "name": "owner",
          "type": "address"
        },
        {
          "indexed": true,
          "internalType": "address",
          "name": "operator",
          "type": "address"
        },
        {
          "indexed": false,
          "internalType": "bool",
          "name": "approved",
          "type": "bool"
        }
      ],
      "name": "ApprovalForAll",
      "type": "event"
    },
    {
      "anonymous": false,
      "inputs": [
        {
          "indexed": true,
          "internalType": "address",
          "name": "previousOwner",
          "type": "address"
        },
        {
          "indexed": true,
          "internalType": "address",
          "name": "newOwner",
          "type": "address"
        }
      ],
      "name": "OwnershipTransferred",
      "type": "event"
    },
    {
      "anonymous": false,
      "inputs": [
        {
          "indexed": true,
          "internalType": "address",
          "name": "from",
          "type": "address"
        },
        {
          "indexed": true,
          "internalType": "address",
          "name": "to",
          "type": "address"
        },
        {
          "indexed": true,
          "internalType": "uint256",
          "name": "tokenId",
          "type": "uint256"
        }
      ],
      "name": "Transfer",
      "type": "event"
    },
    {
      "inputs": [
        {
          "internalType": "address",
          "name": "to",
          "type": "address"
        },
        {
          "internalType": "uint256",
          "name": "tokenId",
          "type": "uint256"
        }
      ],
      "name": "approve",
      "outputs": [],
      "stateMutability": "nonpayable",
      "type": "function"
    },
    {
      "inputs": [
        {
          "internalType": "address",
          "name": "owner",
          "type": "address"
        }
      ],
      "name": "balanceOf",
      "outputs": [
        {
          "internalType": "uint256",
          "name": "",
          "type": "uint256"
        }
      ],
      "stateMutability": "view",
      "type": "function"
    },
    {
      "inputs": [
        {
          "internalType": "uint256",
          "name": "tokenId",
          "type": "uint256"
        }
      ],
      "name": "getApproved",
      "outputs": [
        {
          "internalType": "address",
          "name": "",
          "type": "address"
        }
      ],
      "stateMutability": "view",
      "type": "function"
    },
    {
      "inputs": [
        {
          "internalType": "address",
          "name": "owner",
          "type": "address"
        },
        {
          "internalType": "address",
          "name": "operator",
          "type": "address"
        }
      ],
      "name": "isApprovedForAll",
      "outputs": [
        {
          "internalType": "bool",
          "name": "",
          "type": "bool"
        }
      ],
      "stateMutability": "view",
      "type": "function"
    },
    {
      "inputs": [],
      "name": "isPublicMintEnabled",
      "outputs": [
        {
          "internalType": "bool",
          "name": "",
          "type": "bool"
        }
      ],
      "stateMutability": "view",
      "type": "function"
    },
    {
      "inputs": [],
      "name": "maxPerWallet",
      "outputs": [
        {
          "internalType": "uint256",
          "name": "",
          "type": "uint256"
        }
      ],
      "stateMutability": "view",
      "type": "function"
    },
    {
      "inputs": [],
      "name": "maxSupply",
      "outputs": [
        {
          "internalType": "uint256",
          "name": "",
          "type": "uint256"
        }
      ],
      "stateMutability": "view",
      "type": "function"
    },
    {
      "inputs": [
        {
          "internalType": "uint256",
          "name": "quantity_",
          "type": "uint256"
        }
      ],
      "name": "mint",
      "outputs": [],
      "stateMutability": "payable",
      "type": "function"
    },
    {
      "inputs": [],
      "name": "mintPrice",
      "outputs": [
        {
          "internalType": "uint256",
          "name": "",
          "type": "uint256"
        }
      ],
      "stateMutability": "view",
      "type": "function"
    },
    {
      "inputs": [],
      "name": "name",
      "outputs": [
        {
          "internalType": "string",
          "name": "",
          "type": "string"
        }
      ],
      "stateMutability": "view",
      "type": "function"
    },
    {
      "inputs": [],
      "name": "owner",
      "outputs": [
        {
          "internalType": "address",
          "name": "",
          "type": "address"
        }
      ],
      "stateMutability": "view",
      "type": "function"
    },
    {
      "inputs": [
        {
          "internalType": "uint256",
          "name": "tokenId",
          "type": "uint256"
        }
      ],
      "name": "ownerOf",
      "outputs": [
        {
          "internalType": "address",
          "name": "",
          "type": "address"
        }
      ],
      "stateMutability": "view",
      "type": "function"
    },
    {
      "inputs": [],
      "name": "renounceOwnership",
      "outputs": [],
      "stateMutability": "nonpayable",
      "type": "function"
    },
    {
      "inputs": [
        {
          "internalType": "address",
          "name": "from",
          "type": "address"
        },
        {
          "internalType": "address",
          "name": "to",
          "type": "address"
        },
        {
          "internalType": "uint256",
          "name": "tokenId",
          "type": "uint256"
        }
      ],
      "name": "safeTransferFrom",
      "outputs": [],
      "stateMutability": "nonpayable",
      "type": "function"
    },
    {
      "inputs": [
        {
          "internalType": "address",
          "name": "from",
          "type": "address"
        },
        {
          "internalType": "address",
          "name": "to",
          "type": "address"
        },
        {
          "internalType": "uint256",
          "name": "tokenId",
          "type": "uint256"
        },
        {
          "internalType": "bytes",
          "name": "data",
          "type": "bytes"
        }
      ],
      "name": "safeTransferFrom",
      "outputs": [],
      "stateMutability": "nonpayable",
      "type": "function"
    },
    {
      "inputs": [
        {
          "internalType": "address",
          "name": "operator",
          "type": "address"
        },
        {
          "internalType": "bool",
          "name": "approved",
          "type": "bool"
        }
      ],
      "name": "setApprovalForAll",
      "outputs": [],
      "stateMutability": "nonpayable",
      "type": "function"
    },
    {
      "inputs": [
        {
          "internalType": "string",
          "name": "baseTokenUri_",
          "type": "string"
        }
      ],
      "name": "setBaseTokenUri",
      "outputs": [],
      "stateMutability": "nonpayable",
      "type": "function"
    },
    {
      "inputs": [
        {
          "internalType": "bool",
          "name": "isPublicMintEnabled_",
          "type": "bool"
        }
      ],
      "name": "setIsPublicMintEnabled",
      "outputs": [],
      "stateMutability": "nonpayable",
      "type": "function"
    },
    {
      "inputs": [
        {
          "internalType": "bytes4",
          "name": "interfaceId",
          "type": "bytes4"
        }
      ],
      "name": "supportsInterface",
      "outputs": [
        {
          "internalType": "bool",
          "name": "",
          "type": "bool"
        }
      ],
      "stateMutability": "view",
      "type": "function"
    },
    {
      "inputs": [],
      "name": "symbol",
      "outputs": [
        {
          "internalType": "string",
          "name": "",
          "type": "string"
        }
      ],
      "stateMutability": "view",
      "type": "function"
    },
    {
      "inputs": [
        {
          "internalType": "uint256",
          "name": "tokenId_",
          "type": "uint256"
        }
      ],
      "name": "tokenURI",
      "outputs": [
        {
          "internalType": "string",
          "name": "",
          "type": "string"
        }
      ],
      "stateMutability": "view",
      "type": "function"
    },
    {
      "inputs": [],
      "name": "totalSupply",
      "outputs": [
        {
          "internalType": "uint256",
          "name": "",
          "type": "uint256"
        }
      ],
      "stateMutability": "view",
      "type": "function"
    },
    {
      "inputs": [
        {
          "internalType": "address",
          "name": "from",
          "type": "address"
        },
        {
          "internalType": "address",
          "name": "to",
          "type": "address"
        },
        {
          "internalType": "uint256",
          "name": "tokenId",
          "type": "uint256"
        }
      ],
      "name": "transferFrom",
      "outputs": [],
      "stateMutability": "nonpayable",
      "type": "function"
    },
    {
      "inputs": [
        {
          "internalType": "address",
          "name": "newOwner",
          "type": "address"
        }
      ],
      "name": "transferOwnership",
      "outputs": [],
      "stateMutability": "nonpayable",
      "type": "function"
    },
    {
      "inputs": [
        {
          "internalType": "address",
          "name": "",
          "type": "address"
        }
      ],
      "name": "walletMints",
      "outputs": [
        {
          "internalType": "uint256",
          "name": "",
          "type": "uint256"
        }
      ],
      "stateMutability": "view",
      "type": "function"
    },
    {
      "inputs": [],
      "name": "withdraw",
      "outputs": [],
      "stateMutability": "nonpayable",
      "type": "function"
    },
    {
      "inputs": [],
      "name": "withdrawWallet",
      "outputs": [
        {
          "internalType": "address payable",
          "name": "",
          "type": "address"
        }
      ],
      "stateMutability": "view",
      "type": "function"
    }
  ],
  "bytecode": "0x6009608090815268526f626f50756e6b7360b81b60a052610100604052600260c090815261052560f41b60e05260006200003a838262000182565b50600162000049828262000182565b50505062000066620000606200008760201b60201c565b6200008b565b66470de4df82000060075560006008556103e86009556003600a556200024e565b3390565b600680546001600160a01b038381166001600160a01b0319831681179093556040519116919082907f8be0079c531659141344cd1fd0a4f28419497f9722a3daafe3b4186f6b6457e090600090a35050565b634e487b7160e01b600052604160045260246000fd5b600181811c908216806200010857607f821691505b6020821081036200012957634e487b7160e01b600052602260045260246000fd5b50919050565b601f8211156200017d57600081815260208120601f850160051c81016020861015620001585750805b601f850160051c820191505b81811015620001795782815560010162000164565b5050505b505050565b81516001600160401b038111156200019e576200019e620000dd565b620001b681620001af8454620000f3565b846200012f565b602080601f831160018114620001ee5760008415620001d55750858301515b600019600386901b1c1916600185901b17855562000179565b600085815260208120601f198616915b828110156200021f57888601518255948401946001909101908401620001fe565b50858210156200023e5787850151600019600388901b60f8161c191681555b5050505050600190811b01905550565b611b62806200025e6000396000f3fe60806040526004361061019c5760003560e01c806370a08231116100ec578063a22cb4651161008a578063d5abeb0111610064578063d5abeb011461046c578063e985e9c514610482578063f0293fd3146104a2578063f2fde38b146104cf57600080fd5b8063a22cb4651461040c578063b88d4fde1461042c578063c87b56dd1461044c57600080fd5b80638da5cb5b116100c65780638da5cb5b146103a657806395652cfa146103c457806395d89b41146103e4578063a0712d68146103f957600080fd5b806370a0823114610351578063715018a61461037157806385d178f41461038657600080fd5b80632373ac221161015957806342842e0e1161013357806342842e0e146102e5578063453c2310146103055780636352211e1461031b5780636817c76c1461033b57600080fd5b80632373ac221461029057806323b872dd146102b05780633ccfd60b146102d057600080fd5b80630116bc2d146101a157806301ffc9a7146101d057806306fdde03146101f0578063081812fc14610212578063095ea7b31461024a57806318160ddd1461026c575b600080fd5b3480156101ad57600080fd5b50600b546101bb9060ff1681565b60405190151581526020015b60405180910390f35b3480156101dc57600080fd5b506101bb6101eb366004611461565b6104ef565b3480156101fc57600080fd5b50610205610541565b6040516101c791906114d5565b34801561021e57600080fd5b5061023261022d3660046114e8565b6105d3565b6040516001600160a01b0390911681526020016101c7565b34801561025657600080fd5b5061026a61026536600461151d565b6105fa565b005b34801561027857600080fd5b5061028260085481565b6040519081526020016101c7565b34801561029c57600080fd5b5061026a6102ab366004611557565b610714565b3480156102bc57600080fd5b5061026a6102cb366004611572565b61072f565b3480156102dc57600080fd5b5061026a610760565b3480156102f157600080fd5b5061026a610300366004611572565b610800565b34801561031157600080fd5b50610282600a5481565b34801561032757600080fd5b506102326103363660046114e8565b61081b565b34801561034757600080fd5b5061028260075481565b34801561035d57600080fd5b5061028261036c3660046115ae565b61087b565b34801561037d57600080fd5b5061026a610901565b34801561039257600080fd5b50600d54610232906001600160a01b031681565b3480156103b257600080fd5b506006546001600160a01b0316610232565b3480156103d057600080fd5b5061026a6103df3660046115c9565b610915565b3480156103f057600080fd5b5061020561092a565b61026a6104073660046114e8565b610939565b34801561041857600080fd5b5061026a61042736600461163b565b610acd565b34801561043857600080fd5b5061026a610447366004611684565b610ad8565b34801561045857600080fd5b506102056104673660046114e8565b610b10565b34801561047857600080fd5b5061028260095481565b34801561048e57600080fd5b506101bb61049d366004611760565b610ba1565b3480156104ae57600080fd5b506102826104bd3660046115ae565b600e6020526000908152604090205481565b3480156104db57600080fd5b5061026a6104ea3660046115ae565b610bcf565b60006001600160e01b031982166380ac58cd60e01b148061052057506001600160e01b03198216635b5e139f60e01b145b8061053b57506301ffc9a760e01b6001600160e01b03198316145b92915050565b6060600080546105509061178a565b80601f016020809104026020016040519081016040528092919081815260200182805461057c9061178a565b80156105c95780601f1061059e576101008083540402835291602001916105c9565b820191906000526020600020905b8154815290600101906020018083116105ac57829003601f168201915b5050505050905090565b60006105de82610c45565b506000908152600460205260409020546001600160a01b031690565b60006106058261081b565b9050806001600160a01b0316836001600160a01b0316036106775760405162461bcd60e51b815260206004820152602160248201527f4552433732313a20617070726f76616c20746f2063757272656e74206f776e656044820152603960f91b60648201526084015b60405180910390fd5b336001600160a01b038216148061069357506106938133610ba1565b6107055760405162461bcd60e51b815260206004820152603e60248201527f4552433732313a20617070726f76652063616c6c6572206973206e6f7420746f60448201527f6b656e206f776e6572206e6f7220617070726f76656420666f7220616c6c0000606482015260840161066e565b61070f8383610ca4565b505050565b61071c610d12565b600b805460ff1916911515919091179055565b6107393382610d6c565b6107555760405162461bcd60e51b815260040161066e906117c4565b61070f838383610dcb565b610768610d12565b600d546040516000916001600160a01b03169047908381818185875af1925050503d80600081146107b5576040519150601f19603f3d011682016040523d82523d6000602084013e6107ba565b606091505b50509050806107fd5760405162461bcd60e51b815260206004820152600f60248201526e1dda5d1a191c985dc819985a5b1959608a1b604482015260640161066e565b50565b61070f83838360405180602001604052806000815250610ad8565b6000818152600260205260408120546001600160a01b03168061053b5760405162461bcd60e51b8152602060048201526018602482015277115490cdcc8c4e881a5b9d985b1a59081d1bdad95b88125160421b604482015260640161066e565b60006001600160a01b0382166108e55760405162461bcd60e51b815260206004820152602960248201527f4552433732313a2061646472657373207a65726f206973206e6f7420612076616044820152683634b21037bbb732b960b91b606482015260840161066e565b506001600160a01b031660009081526003602052604090205490565b610909610d12565b6109136000610f67565b565b61091d610d12565b600c61070f828483611860565b6060600180546105509061178a565b600b5460ff166109815760405162461bcd60e51b81526020600482015260136024820152721b5a5b9d1a5b99c81b9bdd08195b98589b1959606a1b604482015260640161066e565b60075461098e9082611937565b34146109cf5760405162461bcd60e51b815260206004820152601060248201526f77726f6e67206d696e742076616c756560801b604482015260640161066e565b600954816008546109e09190611956565b1115610a195760405162461bcd60e51b81526020600482015260086024820152671cdbdb19081bdd5d60c21b604482015260640161066e565b600a54336000908152600e6020526040902054610a37908390611956565b1115610a795760405162461bcd60e51b8152602060048201526011602482015270195e18d95959081b585e081dd85b1b195d607a1b604482015260640161066e565b60005b81811015610ac95760006008546001610a959190611956565b600880549192506000610aa783611969565b9190505550610ab63382610fb9565b5080610ac181611969565b915050610a7c565b5050565b610ac9338383610fd3565b610ae23383610d6c565b610afe5760405162461bcd60e51b815260040161066e906117c4565b610b0a848484846110a1565b50505050565b6000818152600260205260409020546060906001600160a01b0316610b6f5760405162461bcd60e51b8152602060048201526015602482015274546f6b656e20646f6573206e6f742065786973742160581b604482015260640161066e565b600c610b7a836110d4565b604051602001610b8b929190611982565b6040516020818303038152906040529050919050565b6001600160a01b03918216600090815260056020908152604080832093909416825291909152205460ff1690565b610bd7610d12565b6001600160a01b038116610c3c5760405162461bcd60e51b815260206004820152602660248201527f4f776e61626c653a206e6577206f776e657220697320746865207a65726f206160448201526564647265737360d01b606482015260840161066e565b6107fd81610f67565b6000818152600260205260409020546001600160a01b03166107fd5760405162461bcd60e51b8152602060048201526018602482015277115490cdcc8c4e881a5b9d985b1a59081d1bdad95b88125160421b604482015260640161066e565b600081815260046020526040902080546001600160a01b0319166001600160a01b0384169081179091558190610cd98261081b565b6001600160a01b03167f8c5be1e5ebec7d5bd14f71427d1e84f3dd0314c0f7b2291e5b200ac8c7c3b92560405160405180910390a45050565b6006546001600160a01b031633146109135760405162461bcd60e51b815260206004820181905260248201527f4f776e61626c653a2063616c6c6572206973206e6f7420746865206f776e6572604482015260640161066e565b600080610d788361081b565b9050806001600160a01b0316846001600160a01b03161480610d9f5750610d9f8185610ba1565b80610dc35750836001600160a01b0316610db8846105d3565b6001600160a01b0316145b949350505050565b826001600160a01b0316610dde8261081b565b6001600160a01b031614610e425760405162461bcd60e51b815260206004820152602560248201527f4552433732313a207472616e736665722066726f6d20696e636f72726563742060448201526437bbb732b960d91b606482015260840161066e565b6001600160a01b038216610ea45760405162461bcd60e51b8152602060048201526024808201527f4552433732313a207472616e7366657220746f20746865207a65726f206164646044820152637265737360e01b606482015260840161066e565b610eaf600082610ca4565b6001600160a01b0383166000908152600360205260408120805460019290610ed8908490611a19565b90915550506001600160a01b0382166000908152600360205260408120805460019290610f06908490611956565b909155505060008181526002602052604080822080546001600160a01b0319166001600160a01b0386811691821790925591518493918716917fddf252ad1be2c89b69c2b068fc378daa952ba7f163c4a11628f55a4df523b3ef91a4505050565b600680546001600160a01b038381166001600160a01b0319831681179093556040519116919082907f8be0079c531659141344cd1fd0a4f28419497f9722a3daafe3b4186f6b6457e090600090a35050565b610ac98282604051806020016040528060008152506111d5565b816001600160a01b0316836001600160a01b0316036110345760405162461bcd60e51b815260206004820152601960248201527f4552433732313a20617070726f766520746f2063616c6c657200000000000000604482015260640161066e565b6001600160a01b03838116600081815260056020908152604080832094871680845294825291829020805460ff191686151590811790915591519182527f17307eab39ab6107e8899845ad3d59bd9653f200f220920489ca2b5937696c31910160405180910390a3505050565b6110ac848484610dcb565b6110b884848484611208565b610b0a5760405162461bcd60e51b815260040161066e90611a2c565b6060816000036110fb5750506040805180820190915260018152600360fc1b602082015290565b8160005b8115611125578061110f81611969565b915061111e9050600a83611a94565b91506110ff565b60008167ffffffffffffffff8111156111405761114061166e565b6040519080825280601f01601f19166020018201604052801561116a576020820181803683370190505b5090505b8415610dc35761117f600183611a19565b915061118c600a86611aa8565b611197906030611956565b60f81b8183815181106111ac576111ac611abc565b60200101906001600160f81b031916908160001a9053506111ce600a86611a94565b945061116e565b6111df8383611309565b6111ec6000848484611208565b61070f5760405162461bcd60e51b815260040161066e90611a2c565b60006001600160a01b0384163b156112fe57604051630a85bd0160e11b81526001600160a01b0385169063150b7a029061124c903390899088908890600401611ad2565b6020604051808303816000875af1925050508015611287575060408051601f3d908101601f1916820190925261128491810190611b0f565b60015b6112e4573d8080156112b5576040519150601f19603f3d011682016040523d82523d6000602084013e6112ba565b606091505b5080516000036112dc5760405162461bcd60e51b815260040161066e90611a2c565b805181602001fd5b6001600160e01b031916630a85bd0160e11b149050610dc3565b506001949350505050565b6001600160a01b03821661135f5760405162461bcd60e51b815260206004820181905260248201527f4552433732313a206d696e7420746f20746865207a65726f2061646472657373604482015260640161066e565b6000818152600260205260409020546001600160a01b0316156113c45760405162461bcd60e51b815260206004820152601c60248201527f4552433732313a20746f6b656e20616c7265616479206d696e74656400000000604482015260640161066e565b6001600160a01b03821660009081526003602052604081208054600192906113ed908490611956565b909155505060008181526002602052604080822080546001600160a01b0319166001600160a01b03861690811790915590518392907fddf252ad1be2c89b69c2b068fc378daa952ba7f163c4a11628f55a4df523b3ef908290a45050565b6001600160e01b0319811681146107fd57600080fd5b60006020828403121561147357600080fd5b813561147e8161144b565b9392505050565b60005b838110156114a0578181015183820152602001611488565b50506000910152565b600081518084526114c1816020860160208601611485565b601f01601f19169290920160200192915050565b60208152600061147e60208301846114a9565b6000602082840312156114fa57600080fd5b5035919050565b80356001600160a01b038116811461151857600080fd5b919050565b6000806040838503121561153057600080fd5b61153983611501565b946020939093013593505050565b8035801515811461151857600080fd5b60006020828403121561156957600080fd5b61147e82611547565b60008060006060848603121561158757600080fd5b61159084611501565b925061159e60208501611501565b9150604084013590509250925092565b6000602082840312156115c057600080fd5b61147e82611501565b600080602083850312156115dc57600080fd5b823567ffffffffffffffff808211156115f457600080fd5b818501915085601f83011261160857600080fd5b81358181111561161757600080fd5b86602082850101111561162957600080fd5b60209290920196919550909350505050565b6000806040838503121561164e57600080fd5b61165783611501565b915061166560208401611547565b90509250929050565b634e487b7160e01b600052604160045260246000fd5b6000806000806080858703121561169a57600080fd5b6116a385611501565b93506116b160208601611501565b925060408501359150606085013567ffffffffffffffff808211156116d557600080fd5b818701915087601f8301126116e957600080fd5b8135818111156116fb576116fb61166e565b604051601f8201601f19908116603f011681019083821181831017156117235761172361166e565b816040528281528a602084870101111561173c57600080fd5b82602086016020830137600060208483010152809550505050505092959194509250565b6000806040838503121561177357600080fd5b61177c83611501565b915061166560208401611501565b600181811c9082168061179e57607f821691505b6020821081036117be57634e487b7160e01b600052602260045260246000fd5b50919050565b6020808252602e908201527f4552433732313a2063616c6c6572206973206e6f7420746f6b656e206f776e6560408201526d1c881b9bdc88185c1c1c9bdd995960921b606082015260800190565b601f82111561070f57600081815260208120601f850160051c810160208610156118395750805b601f850160051c820191505b8181101561185857828155600101611845565b505050505050565b67ffffffffffffffff8311156118785761187861166e565b61188c83611886835461178a565b83611812565b6000601f8411600181146118c057600085156118a85750838201355b600019600387901b1c1916600186901b17835561191a565b600083815260209020601f19861690835b828110156118f157868501358255602094850194600190920191016118d1565b508682101561190e5760001960f88860031b161c19848701351681555b505060018560011b0183555b5050505050565b634e487b7160e01b600052601160045260246000fd5b600081600019048311821515161561195157611951611921565b500290565b8082018082111561053b5761053b611921565b60006001820161197b5761197b611921565b5060010190565b60008084546119908161178a565b600182811680156119a857600181146119bd576119ec565b60ff19841687528215158302870194506119ec565b8860005260208060002060005b858110156119e35781548a8201529084019082016119ca565b50505082870194505b505050508351611a00818360208801611485565b64173539b7b760d91b9101908152600501949350505050565b8181038181111561053b5761053b611921565b60208082526032908201527f4552433732313a207472616e7366657220746f206e6f6e20455243373231526560408201527131b2b4bb32b91034b6b83632b6b2b73a32b960711b606082015260800190565b634e487b7160e01b600052601260045260246000fd5b600082611aa357611aa3611a7e565b500490565b600082611ab757611ab7611a7e565b500690565b634e487b7160e01b600052603260045260246000fd5b6001600160a01b0385811682528416602082015260408101839052608060608201819052600090611b05908301846114a9565b9695505050505050565b600060208284031215611b2157600080fd5b815161147e8161144b56fea2646970667358221220e761d9f994270270cdf48d340373803f4066e84bd1e9891578e1d187ad1ba0aa64736f6c63430008100033",
  "linkReferences": {},
  "deployedLinkReferences": {}
}